:100000000C945E000C9486000C9486000C94860080
:100010000C9486000C9486000C9486000C94860048
:100020000C9486000C9486000C9486000C94860038
:100030000C9486000C9486000C9486000C94860028
:100040000C940A040C9486000C947A040C945404C6
:100050000C9486000C9486000C9486000C94860008
:100060000C9486000C948600000000080002010039
:100070000003040700000000000000000000000072
:10008000240027002A0001020408102040800102F9
:1000900004081020010204081020000000002500C0
:1000A00028002B00040404040404040402020202D5
:1000B0000202030303030303AC047D0711241FBEE4
:1000C000CFEFD8E0DEBFCDBF11E0A0E0B1E0E4E1CA
:1000D000F2E102C005900D92AC31B107D9F721E0F1
:1000E000ACE1B1E001C01D92AF3DB207E1F710E015
:1000F000CDE5D0E004C02197FE010E94D107CC35A8
:10010000D107C9F70E9423050C94FD080C94000048
:1001100080E480937C0080917A00806480937A00F0
:1001200080917A0086FDFCCF809178002091790043
:1001300090E0922B08958F929F92AF92BF92CF92B0
:10014000DF92EF92FF92CF93DF934B01AA24BB245F
:10015000A82DC52ED62EE72EFF243C2DB42F20919E
:10016000D101222361F0829E40011124A92D2C9DF2
:10017000600111243D2D249FA0011124B52FFC0105
:10018000EE0FFF1F8E0F9F1FE091D201F091D30160
:10019000E80FF91F8091CF01EF01229680FF03C085
:1001A0003083A18302C0A0833183B883DF91CF91D4
:1001B000FF90EF90DF90CF90BF90AF909F908F9087
:1001C0000895FC01538D448D252F30E0842F90E05D
:1001D000821B930B541710F0CF9608950197089542
:1001E000FC01918D828D981761F0828DDF01A80F3F
:1001F000B11D5D968C91928D9F5F9F73928F90E061
:1002000008958FEF9FEF0895FC01918D828D9817CF
:1002100031F0828DE80FF11D858D90E008958FEF0C
:100220009FEF0895FC01918D228D892F90E0805CD5
:100230009F4F821B91098F7399270895FC01848D2C
:10024000DF01A80FB11DA35ABF4F2C91848D90E000
:1002500001968F739927848FA689B7892C93A089DB
:10026000B1898C91837080648C93938D848D981365
:1002700006C00288F389E02D80818F7D80830895F8
:10028000EF92FF920F931F93CF93DF93EC0181E0E6
:10029000888F9B8D8C8D981305C0E889F9898081A2
:1002A00085FD26C0F62E0B8D10E00F5F1F4F0F73DC
:1002B0001127E02E8C8DE8120CC00FB607FCFACF88
:1002C000E889F989808185FFF5CFCE010E941E0162
:1002D000F1CF8B8DFE01E80FF11DE35AFF4FF08245
:1002E0009FB7F8940B8FEA89FB89808180620AC0EE
:1002F0009FB7F894EE89FF896083E889F989808146
:100300008370806480839FBF81E090E0DF91CF9114
:100310001F910F91FF90EF900895CF93DF93EC0121
:10032000888D8823C9F0EA89FB89808185FD05C015
:10033000A889B9898C9186FD0FC00FB607FCF5CF4F
:10034000808185FFF2CFA889B9898C9185FFEDCF97
:10035000CE010E941E01E7CFDF91CF9108958EE27A
:1003600091E00E94120121E0892B09F420E0822F04
:10037000089580E090E0892B29F00E94AF0181115F
:100380000C94000008953FB7F89480912A01909151
:100390002B01A0912C01B0912D0126B5A89B05C081
:1003A0002F3F19F00196A11DB11D3FBFBA2FA92FF4
:1003B000982F8827820F911DA11DB11DBC01CD0171
:1003C00042E0660F771F881F991F4A95D1F708955D
:1003D0000F931F93CF93DF93CDB7DEB729970FB657
:1003E000F894DEBF0FBECDBF8091D2019091D301B2
:1003F000892B09F4A0C00E94C3010091D40110917F
:10040000D5012091D6013091D701DC01CB01801BB1
:10041000910BA20BB30BC297A105B10560F3F89441
:100420008091CD019091CE019A838983E091D20190
:10043000F091D301DF011196808189879091CF01DE
:10044000E091D801F091D9018091DA0191FF2EC09D
:100450009081982B98879081809589238F838F81B5
:100460008C8388E08B8358856F8149853B812C8103
:1004700089819A81508347FD252F3A952083262F25
:1004800039F0441F00C000006083000000C0F2CFBC
:1004900038E04D9160830000019761F7F093D90136
:1004A000E093D80149873B832C8338C09081982BF7
:1004B00098879081809589238F838F818E8388E0B0
:1004C0008D8358856F8149853D812E8189819A81EF
:1004D000508347FD252F00C000C0208300C000C00E
:1004E00000C000C000C060830000262F3A9541F094
:1004F000441F000000C000C000C000C000C0E8CF22
:1005000038E04D9100C0608300C0019709F7F09377
:10051000D901E093D80149873D832E839A8389834B
:1005200078940E94C3016093D4017093D5018093A5
:10053000D6019093D70129960FB6F894DEBF0FBE6F
:10054000CDBFDF91CF911F910F9108958F929F9210
:10055000AF92BF92CF92DF92EF92FF926B017C013C
:100560000E94C3014B015C01C114D104E104F104F8
:10057000F1F00E94C301DC01CB0188199909AA0995
:10058000BB09883E9340A105B10570F321E0C21A72
:10059000D108E108F10888EE880E83E0981EA11CBE
:1005A000B11CC114D104E104F10419F7DDCFFF90AF
:1005B000EF90DF90CF90BF90AF909F908F90089575
:1005C0002FB7F8946091260170912701809128013E
:1005D000909129012FBF0895CF92DF92EF92FF9261
:1005E0000F931F93CF93DF936C017A018B01C0E0CF
:1005F000D0E0CE15DF0581F0D8016D918D01D601D7
:10060000ED91FC910190F081E02DC6010995892BB7
:1006100011F02196EECF7E01C701DF91CF911F919E
:100620000F91FF90EF90DF90CF900895089580E0B4
:1006300090E008958F929F92AF92BF92CF92DF92F7
:10064000EF92FF92CF93DF934B015C01C0E0D0E0CB
:10065000C42ED12CE12CF12C8091CB019091CC01B6
:10066000C817D90768F4B501A401CE010E949B0008
:100670000E94E801C701B6010E94A6022196ECCFB4
:10068000DF91CF91FF90EF90DF90CF90BF90AF9030
:100690009F908F9008954AE060E070E0CB010E9447
:1006A0001A034AE060E070E0CB010C941A030F9348
:1006B0001F93CF93DF930E9488008C016AE070E063
:1006C00080E090E00E94A6020E948800EC016AE0AF
:1006D00070E080E090E00E94A6020E948800582FFF
:1006E000492F98010C171D070CF49E01852F942F9C
:1006F000821793070CF4C901DF91CF911F910F91DD
:1007000008958F929F92AF92BF920F931F93CF93B2
:10071000DF93CDB7DEB7A1970FB6F894DEBF0FBE5B
:10072000CDBF19A2423008F44AE08E010F5D1F4F81
:10073000842E912CA12CB12CA50194010E94AF070D
:10074000E62FB901CA0101501109EA3014F4E05D45
:1007500001C0E95CD801EC93232B242B252B61F7F6
:100760000115110571F0F80101900020E9F73197AA
:10077000AF01401B510BB8018EE291E00E94EC02E8
:1007800002C080E090E0A1960FB6F894DEBF0FBEE5
:10079000CDBFDF91CF911F910F91BF90AF909F90F0
:1007A0008F900895CF92DF92EF92FF92CF93DF93D5
:1007B0000E945703EC016C01990FEE08FF08F7FE49
:1007C0000EC06DE28EE291E00E944001662777271D
:1007D000CB016C197D098E099F094AE003C04AE0EC
:1007E000C701B6010E94810342E050E069E171E077
:1007F0008EE291E00E94EC0281E0C436D1050CF05B
:1008000080E0DF91CF91FF90EF90DF90CF9008953F
:100810000E94F8081F920F920FB60F9211242F9387
:100820003F938F939F93AF93BF93809126019091B5
:100830002701A0912801B09129013091250123E0E1
:10084000230F2D3720F40196A11DB11D05C026E808
:10085000230F0296A11DB11D20932501809326012F
:1008600090932701A0932801B093290180912A0138
:1008700090912B01A0912C01B0912D010196A11D09
:10088000B11D80932A0190932B01A0932C01B0936A
:100890002D01BF91AF919F918F913F912F910F901B
:1008A0000FBE0F901F9018951F920F920FB60F92C8
:1008B00011242F933F934F935F936F937F938F9365
:1008C0009F93AF93BF93EF93FF938EE291E00E94CB
:1008D0001E01FF91EF91BF91AF919F918F917F91F9
:1008E0006F915F914F913F912F910F900FBE0F909D
:1008F0001F9018951F920F920FB60F9211242F93ED
:100900008F939F93EF93FF93E0913E01F0913F010E
:100910008081E0914401F091450182FD12C09081F7
:10092000809147018F5F8F7320914801821751F0AA
:10093000E0914701F0E0E25DFE4F958F8093470123
:1009400001C08081FF91EF919F918F912F910F9026
:100950000FBE0F901F901895109231011092300128
:1009600088EE93E0A0E0B0E08093320190933301F1
:10097000A0933401B09335018BE091E090932F0167
:1009800080932E0185EC90E090933B0180933A0197
:1009900084EC90E090933D0180933C0180EC90E0EA
:1009A00090933F0180933E0181EC90E09093410150
:1009B0008093400182EC90E0909343018093420148
:1009C00086EC90E09093450180934401109247019A
:1009D000109248011092490110924A0180E190E082
:1009E0009093CC018093CB0180E390E09093CE0173
:1009F0008093CD0183E08093CF018AE08093D00182
:100A0000EEEAF0E0E491F0E0EE0FFF1FE656FF4F54
:100A1000859194919093D9018093D801E0E9F0E019
:100A2000E491E093DA0180E390E00E94D70790938D
:100A3000D3018093D201009729F020E3FC011192A9
:100A40002A95E9F70895789484B5826084BD84B5C9
:100A5000816084BD85B5826085BD85B5816085BDB9
:100A600080916E00816080936E0010928100809171
:100A700081008260809381008091810081608093F9
:100A80008100809180008160809380008091B1001E
:100A900084608093B1008091B00081608093B00049
:100AA00080917A00846080937A0080917A008260DD
:100AB00080937A0080917A00816080937A0080919F
:100AC0007A00806880937A001092C1008091D001F2
:100AD00090E0FC01EA57FF4F2491FC01EC55FF4FD9
:100AE0008491882399F090E0880F991FFC01E458C5
:100AF000FF4FA591B491FC01E656FF4F859194916B
:100B00008FB7F894EC91E22BEC938FBF8091D001DA
:100B100090E0FC01E859FF4F2491FC01EA57FF4F98
:100B20003491FC01EC55FF4FE491EE23B9F12223FF
:100B300039F1233091F038F42130A9F0223001F559
:100B400084B58F7D12C0273091F02830A1F0243079
:100B5000B9F4809180008F7D03C0809180008F77F1
:100B6000809380000DC084B58F7784BD09C08091CB
:100B7000B0008F7703C08091B0008F7D8093B0006C
:100B8000F0E0EE0FFF1FE656FF4FA591B4919FB71F
:100B9000F8948C91309538233C939FBF0E94E801D4
:100BA0004AE064E674E684E690E00E941A0368EE88
:100BB00073E080E090E00E94A60247E760E070E00A
:100BC000CB010E941A030E945703853691059CF0C1
:100BD0004BEB64E674E684E690E00E941A0364E658
:100BE00070E080E090E00E94A6024BEB60E070E0D5
:100BF000CB010E941A03F0E68F2EFAEE9F2EA12C55
:100C0000B12CADEF6A2E772473940E94D20388230F
:100C100089F00E944B0370920001709224010E949F
:100C2000E002609320017093210180932201909350
:100C3000230156C1809124018823A9F04CE364E686
:100C400074E684E690E00E941A0364E670E080E0B7
:100C500090E00E94A6024CE360E070E0CB010E94AD
:100C60001A03109224018091200190912101A091FA
:100C70002201B0912301892B8A2B8B2B51F40E94E6
:100C8000E0026093200170932101809322019093F0
:100C900023010E94E0020091200110912101209186
:100CA000220130912301DC01CB01801B910BA20BAF
:100CB000B30B80349747AB41B105B0F00E94E0021E
:100CC000609320017093210180932201909323016E
:100CD000109200010E94E00260931C0170931D01BC
:100CE00080931E0190931F01809100018111BEC06D
:100CF0004EE160E070E08FEF90E00E941A030E94E6
:100D0000D2038823C1F080911C0190911D01A09114
:100D10001E01B0911F01892B8A2B8B2B09F07CC0FF
:100D20000E94E00260931C0170931D0180931E01DC
:100D300090931F0171C044E160E07FEF80E090E09C
:100D40000E941A030E94D2038111DDCF4AE06FEFA7
:100D500070E080E090E00E941A030E94D2038111AB
:100D6000D2CF44E16FEF7FEF8FEF90E00E941A0344
:100D70000E94D2038111C7CF44E660E070E0CB014E
:100D80000E941A030E94D2038111BDCFC12C00E042
:100D900010E0C62DCC19D02EDC2DE12CF12C809149
:100DA000CB019091CC01E816F90620F584E58D156C
:100DB00050F04D2F50E060E070E0BA015527442715
:100DC00082E08C0F15C029EA2D1560F041E04C0F30
:100DD00050E060E070E0BA015527442781E08D0FB4
:100DE000482B81C04C2F50E060E070E082E08D0F16
:100DF000582B79C00E94E80164E170E080E090E047
:100E00000E94A6020F5F1F4F83E0C80E011521E06C
:100E1000120709F0BECF77CF0E94E00200911C01BB
:100E200010911D0120911E0130911F01DC01CB01A9
:100E3000801B910BA20BB30B803C9742A940B105DC
:100E400070F00E94E00260931C0170931D0180937A
:100E50001E0190931F01709200010E944B0364EFEA
:100E600071E080E090E00E94A6023AC00E94E00299
:100E70000091200110912101209122013091230144
:100E8000601B710B820B930BA50194010E94AF07AD
:100E9000DA01C901B595A795979587950097A105A2
:100EA000B105F1F0EC0100E010E08091CB019091F0
:100EB000CC010817190738F445E055E065E070E00B
:100EC000C8010E949B000E94E80164E170E080E09C
:100ED00090E00E94A6020F5F1F4F0C171D0728F31A
:100EE0000E94B90192CEC7010E949B008FEFE81AC1
:100EF000F80ADD5FC350D39452CFCF93DF93809134
:100F0000D2019091D301009711F00E946F08809157
:100F1000D00190E0FC01EA57FF4F2491FC01EC5511
:100F2000FF4F84918823C1F090E0880F991FFC0146
:100F3000E458FF4FC591D491FC01E656FF4FA591AF
:100F4000B4919FB7F8948881E22FE0958E2388832F
:100F50008C91E823EC939FBFDF91CF910895A1E29C
:100F60001A2EAA1BBB1BFD010DC0AA1FBB1FEE1F23
:100F7000FF1FA217B307E407F50720F0A21BB30B6E
:100F8000E40BF50B661F771F881F991F1A9469F7EA
:100F900060957095809590959B01AC01BD01CF0146
:100FA0000895EE0FFF1F0590F491E02D09940F9323
:100FB0001F93CF93DF938230910510F482E090E08D
:100FC000E091DD01F091DE0120E030E0A0E0B0E052
:100FD000309719F1408151810281138148175907D7
:100FE000C8F08417950769F4109731F012960C93A6
:100FF000129713961C9327C00093DD011093DE0116
:1010000022C02115310519F04217530718F49A012F
:10101000BD01EF01DF01F801DBCF21153105F9F04A
:10102000281B390B2430310580F48A819B8161159E
:10103000710521F0FB019383828304C09093DE014C
:101040008093DD01FE01329644C0FE01E20FF31FE2
:101050008193919322503109398328833AC020919A
:10106000DB013091DC01232B41F42091030130910D
:1010700004013093DC012093DB01209101013091C8
:1010800002012115310541F42DB73EB7409105010C
:1010900050910601241B350BE091DB01F091DC013E
:1010A000E217F307A0F42E1B3F0B2817390778F03F
:1010B000AC014E5F5F4F2417350748F04E0F5F1F9E
:1010C0005093DC014093DB018193919302C0E0E0F7
:1010D000F0E0CF01DF91CF911F910F910895CF9351
:1010E000DF93009709F481C0FC01329713821282CA
:1010F000A091DD01B091DE01109781F42081318152
:10110000820F931F2091DB013091DC0128173907F2
:1011100051F5F093DC01E093DB0167C0ED0120E0C5
:1011200030E0CE17DF0740F44A815B819E01411514
:101130005105F1F0EA01F5CFD383C283408151819B
:10114000840F951FC817D90759F488819981840F96
:10115000951F0296918380838A819B8193838283EA
:101160002115310529F4F093DE01E093DD013DC046
:10117000E901FB83EA8349915991C40FD51FEC170C
:10118000FD0761F480819181840F951F0296E9012A
:1011900099838883828193819B838A83E0E0F0E056
:1011A00012968D919C911397009719F0FD01DC0127
:1011B000F7CF8D919C9111979D012E5F3F4F820F2C
:1011C000931F2091DB013091DC012817390769F466
:1011D000309729F41092DE011092DD0102C01382D3
:1011E0001282B093DC01A093DB01DF91CF910895CF
:1011F00081E090E0F8940C94FD0810E0CDE5D0E09B
:1012000004C0FE010E94D1072196CE35D107C9F74F
:04121000F894FFCF80
:10121400010000DF018000000000004001EC02E159
:0C122400008D011201F00004010D0A0011
:00000001FF
